{
  "_format": "hh-sol-artifact-1",
  "contractName": "DecryptMarketplace",
  "sourceName": "contracts/Marketplace/DecryptMarketplace.sol",
  "abi": [
    {
      "anonymous": false,
      "inputs": [
        {
          "indexed": false,
          "internalType": "address",
          "name": "previousAdmin",
          "type": "address"
        },
        {
          "indexed": false,
          "internalType": "address",
          "name": "newAdmin",
          "type": "address"
        }
      ],
      "name": "AdminChanged",
      "type": "event"
    },
    {
      "anonymous": false,
      "inputs": [
        {
          "indexed": true,
          "internalType": "address",
          "name": "beacon",
          "type": "address"
        }
      ],
      "name": "BeaconUpgraded",
      "type": "event"
    },
    {
      "anonymous": false,
      "inputs": [
        {
          "indexed": false,
          "internalType": "address",
          "name": "buyer",
          "type": "address"
        },
        {
          "indexed": false,
          "internalType": "address",
          "name": "seller",
          "type": "address"
        },
        {
          "indexed": false,
          "internalType": "address",
          "name": "tokenAddress",
          "type": "address"
        },
        {
          "indexed": false,
          "internalType": "uint256[]",
          "name": "tokenId",
          "type": "uint256[]"
        },
        {
          "indexed": false,
          "internalType": "uint256",
          "name": "amount",
          "type": "uint256"
        }
      ],
      "name": "BundleSale",
      "type": "event"
    },
    {
      "anonymous": false,
      "inputs": [
        {
          "indexed": false,
          "internalType": "address",
          "name": "seller",
          "type": "address"
        },
        {
          "indexed": false,
          "internalType": "address",
          "name": "tokenAddress",
          "type": "address"
        },
        {
          "indexed": false,
          "internalType": "uint256",
          "name": "tokenId",
          "type": "uint256"
        },
        {
          "indexed": false,
          "internalType": "enum DecryptMarketplace.ListingType",
          "name": "listingType",
          "type": "uint8"
        }
      ],
      "name": "CancelledOrder",
      "type": "event"
    },
    {
      "anonymous": false,
      "inputs": [
        {
          "indexed": false,
          "internalType": "address",
          "name": "tokenAddress",
          "type": "address"
        },
        {
          "indexed": false,
          "internalType": "address",
          "name": "royaltyReceiver",
          "type": "address"
        },
        {
          "components": [
            {
              "internalType": "address",
              "name": "collaborator",
              "type": "address"
            },
            {
              "internalType": "uint256",
              "name": "share",
              "type": "uint256"
            }
          ],
          "indexed": false,
          "internalType": "struct RoyaltyShare[]",
          "name": "collaborators",
          "type": "tuple[]"
        },
        {
          "indexed": false,
          "internalType": "uint256",
          "name": "royaltyAmount",
          "type": "uint256"
        }
      ],
      "name": "DistributedRoyaltyPaid",
      "type": "event"
    },
    {
      "anonymous": false,
      "inputs": [
        {
          "indexed": false,
          "internalType": "address",
          "name": "",
          "type": "address"
        }
      ],
      "name": "NewAdminAddress",
      "type": "event"
    },
    {
      "anonymous": false,
      "inputs": [
        {
          "indexed": false,
          "internalType": "uint256",
          "name": "newMarketplaceFee",
          "type": "uint256"
        }
      ],
      "name": "NewMarketplaceFee",
      "type": "event"
    },
    {
      "anonymous": false,
      "inputs": [
        {
          "indexed": false,
          "internalType": "uint256",
          "name": "newRoyaltyLimit",
          "type": "uint256"
        }
      ],
      "name": "NewRoyaltyLimit",
      "type": "event"
    },
    {
      "anonymous": false,
      "inputs": [
        {
          "indexed": false,
          "internalType": "uint256",
          "name": "",
          "type": "uint256"
        }
      ],
      "name": "NewSuperAdminShare",
      "type": "event"
    },
    {
      "anonymous": false,
      "inputs": [
        {
          "indexed": true,
          "internalType": "address",
          "name": "previousOwner",
          "type": "address"
        },
        {
          "indexed": true,
          "internalType": "address",
          "name": "newOwner",
          "type": "address"
        }
      ],
      "name": "OwnershipTransferred",
      "type": "event"
    },
    {
      "anonymous": false,
      "inputs": [
        {
          "indexed": false,
          "internalType": "address",
          "name": "tokenAddress",
          "type": "address"
        },
        {
          "indexed": false,
          "internalType": "address",
          "name": "royaltyReceiver",
          "type": "address"
        },
        {
          "indexed": false,
          "internalType": "uint256",
          "name": "royaltyAmount",
          "type": "uint256"
        }
      ],
      "name": "RoyaltyPaid",
      "type": "event"
    },
    {
      "anonymous": false,
      "inputs": [
        {
          "indexed": false,
          "internalType": "address",
          "name": "buyer",
          "type": "address"
        },
        {
          "indexed": false,
          "internalType": "address",
          "name": "seller",
          "type": "address"
        },
        {
          "indexed": false,
          "internalType": "address",
          "name": "tokenAddress",
          "type": "address"
        },
        {
          "indexed": false,
          "internalType": "uint256",
          "name": "tokenId",
          "type": "uint256"
        },
        {
          "indexed": false,
          "internalType": "uint256",
          "name": "amount",
          "type": "uint256"
        },
        {
          "indexed": false,
          "internalType": "uint256",
          "name": "quantity",
          "type": "uint256"
        }
      ],
      "name": "Sale",
      "type": "event"
    },
    {
      "anonymous": false,
      "inputs": [
        {
          "indexed": true,
          "internalType": "address",
          "name": "implementation",
          "type": "address"
        }
      ],
      "name": "Upgraded",
      "type": "event"
    },
    {
      "inputs": [],
      "name": "admin",
      "outputs": [
        {
          "internalType": "address payable",
          "name": "",
          "type": "address"
        }
      ],
      "stateMutability": "view",
      "type": "function"
    },
    {
      "inputs": [
        {
          "internalType": "address",
          "name": "",
          "type": "address"
        },
        {
          "internalType": "bytes32",
          "name": "",
          "type": "bytes32"
        }
      ],
      "name": "amountOf1155TokensLeftToSell",
      "outputs": [
        {
          "internalType": "uint256",
          "name": "",
          "type": "uint256"
        }
      ],
      "stateMutability": "view",
      "type": "function"
    },
    {
      "inputs": [
        {
          "components": [
            {
              "internalType": "address",
              "name": "user",
              "type": "address"
            },
            {
              "internalType": "address",
              "name": "tokenAddress",
              "type": "address"
            },
            {
              "internalType": "uint256",
              "name": "tokenId",
              "type": "uint256"
            },
            {
              "internalType": "uint256",
              "name": "quantity",
              "type": "uint256"
            },
            {
              "internalType": "enum DecryptMarketplace.ListingType",
              "name": "listingType",
              "type": "uint8"
            },
            {
              "internalType": "address",
              "name": "paymentToken",
              "type": "address"
            },
            {
              "internalType": "uint256",
              "name": "value",
              "type": "uint256"
            },
            {
              "internalType": "uint256",
              "name": "deadline",
              "type": "uint256"
            },
            {
              "internalType": "uint256[]",
              "name": "bundleTokens",
              "type": "uint256[]"
            },
            {
              "internalType": "uint256[]",
              "name": "bundleTokensQuantity",
              "type": "uint256[]"
            },
            {
              "internalType": "uint256",
              "name": "salt",
              "type": "uint256"
            }
          ],
          "internalType": "struct DecryptMarketplace.Order",
          "name": "_order",
          "type": "tuple"
        }
      ],
      "name": "buildHash",
      "outputs": [
        {
          "internalType": "bytes32",
          "name": "",
          "type": "bytes32"
        }
      ],
      "stateMutability": "view",
      "type": "function"
    },
    {
      "inputs": [
        {
          "components": [
            {
              "internalType": "address",
              "name": "user",
              "type": "address"
            },
            {
              "internalType": "address",
              "name": "tokenAddress",
              "type": "address"
            },
            {
              "internalType": "uint256",
              "name": "tokenId",
              "type": "uint256"
            },
            {
              "internalType": "uint256",
              "name": "quantity",
              "type": "uint256"
            },
            {
              "internalType": "enum DecryptMarketplace.ListingType",
              "name": "listingType",
              "type": "uint8"
            },
            {
              "internalType": "address",
              "name": "paymentToken",
              "type": "address"
            },
            {
              "internalType": "uint256",
              "name": "value",
              "type": "uint256"
            },
            {
              "internalType": "uint256",
              "name": "deadline",
              "type": "uint256"
            },
            {
              "internalType": "uint256[]",
              "name": "bundleTokens",
              "type": "uint256[]"
            },
            {
              "internalType": "uint256[]",
              "name": "bundleTokensQuantity",
              "type": "uint256[]"
            },
            {
              "internalType": "uint256",
              "name": "salt",
              "type": "uint256"
            }
          ],
          "internalType": "struct DecryptMarketplace.Order",
          "name": "_usersOrder",
          "type": "tuple"
        }
      ],
      "name": "cancelOrder",
      "outputs": [],
      "stateMutability": "nonpayable",
      "type": "function"
    },
    {
      "inputs": [
        {
          "components": [
            {
              "internalType": "address",
              "name": "user",
              "type": "address"
            },
            {
              "internalType": "address",
              "name": "tokenAddress",
              "type": "address"
            },
            {
              "internalType": "uint256",
              "name": "tokenId",
              "type": "uint256"
            },
            {
              "internalType": "uint256",
              "name": "quantity",
              "type": "uint256"
            },
            {
              "internalType": "enum DecryptMarketplace.ListingType",
              "name": "listingType",
              "type": "uint8"
            },
            {
              "internalType": "address",
              "name": "paymentToken",
              "type": "address"
            },
            {
              "internalType": "uint256",
              "name": "value",
              "type": "uint256"
            },
            {
              "internalType": "uint256",
              "name": "deadline",
              "type": "uint256"
            },
            {
              "internalType": "uint256[]",
              "name": "bundleTokens",
              "type": "uint256[]"
            },
            {
              "internalType": "uint256[]",
              "name": "bundleTokensQuantity",
              "type": "uint256[]"
            },
            {
              "internalType": "uint256",
              "name": "salt",
              "type": "uint256"
            }
          ],
          "internalType": "struct DecryptMarketplace.Order",
          "name": "_sellerOrder",
          "type": "tuple"
        },
        {
          "components": [
            {
              "internalType": "uint8",
              "name": "v",
              "type": "uint8"
            },
            {
              "internalType": "bytes32",
              "name": "r",
              "type": "bytes32"
            },
            {
              "internalType": "bytes32",
              "name": "s",
              "type": "bytes32"
            }
          ],
          "internalType": "struct DecryptMarketplace.Sig",
          "name": "_sellerSig",
          "type": "tuple"
        },
        {
          "components": [
            {
              "internalType": "address",
              "name": "user",
              "type": "address"
            },
            {
              "internalType": "address",
              "name": "tokenAddress",
              "type": "address"
            },
            {
              "internalType": "uint256",
              "name": "tokenId",
              "type": "uint256"
            },
            {
              "internalType": "uint256",
              "name": "quantity",
              "type": "uint256"
            },
            {
              "internalType": "enum DecryptMarketplace.ListingType",
              "name": "listingType",
              "type": "uint8"
            },
            {
              "internalType": "address",
              "name": "paymentToken",
              "type": "address"
            },
            {
              "internalType": "uint256",
              "name": "value",
              "type": "uint256"
            },
            {
              "internalType": "uint256",
              "name": "deadline",
              "type": "uint256"
            },
            {
              "internalType": "uint256[]",
              "name": "bundleTokens",
              "type": "uint256[]"
            },
            {
              "internalType": "uint256[]",
              "name": "bundleTokensQuantity",
              "type": "uint256[]"
            },
            {
              "internalType": "uint256",
              "name": "salt",
              "type": "uint256"
            }
          ],
          "internalType": "struct DecryptMarketplace.Order",
          "name": "_buyerOrder",
          "type": "tuple"
        },
        {
          "components": [
            {
              "internalType": "uint8",
              "name": "v",
              "type": "uint8"
            },
            {
              "internalType": "bytes32",
              "name": "r",
              "type": "bytes32"
            },
            {
              "internalType": "bytes32",
              "name": "s",
              "type": "bytes32"
            }
          ],
          "internalType": "struct DecryptMarketplace.Sig",
          "name": "_buyerSig",
          "type": "tuple"
        }
      ],
      "name": "completeOrder",
      "outputs": [],
      "stateMutability": "payable",
      "type": "function"
    },
    {
      "inputs": [],
      "name": "implementationAddress",
      "outputs": [
        {
          "internalType": "address",
          "name": "",
          "type": "address"
        }
      ],
      "stateMutability": "view",
      "type": "function"
    },
    {
      "inputs": [
        {
          "internalType": "string",
          "name": "name",
          "type": "string"
        },
        {
          "internalType": "string",
          "name": "version",
          "type": "string"
        },
        {
          "internalType": "uint256",
          "name": "_marketplaceFee",
          "type": "uint256"
        },
        {
          "internalType": "uint256",
          "name": "_superAdminShare",
          "type": "uint256"
        },
        {
          "internalType": "address payable",
          "name": "_admin",
          "type": "address"
        },
        {
          "internalType": "uint256",
          "name": "_royaltyLimit",
          "type": "uint256"
        }
      ],
      "name": "initialize",
      "outputs": [],
      "stateMutability": "nonpayable",
      "type": "function"
    },
    {
      "inputs": [],
      "name": "marketplaceFee",
      "outputs": [
        {
          "internalType": "uint256",
          "name": "",
          "type": "uint256"
        }
      ],
      "stateMutability": "view",
      "type": "function"
    },
    {
      "inputs": [
        {
          "internalType": "address",
          "name": "",
          "type": "address"
        },
        {
          "internalType": "bytes32",
          "name": "",
          "type": "bytes32"
        }
      ],
      "name": "orderIsCancelledOrCompleted",
      "outputs": [
        {
          "internalType": "bool",
          "name": "",
          "type": "bool"
        }
      ],
      "stateMutability": "view",
      "type": "function"
    },
    {
      "inputs": [],
      "name": "owner",
      "outputs": [
        {
          "internalType": "address",
          "name": "",
          "type": "address"
        }
      ],
      "stateMutability": "view",
      "type": "function"
    },
    {
      "inputs": [
        {
          "internalType": "address",
          "name": "ownerAddress",
          "type": "address"
        },
        {
          "internalType": "address",
          "name": "tokenAddress",
          "type": "address"
        },
        {
          "internalType": "uint256",
          "name": "tokenId",
          "type": "uint256"
        },
        {
          "internalType": "uint256",
          "name": "eventId",
          "type": "uint256"
        },
        {
          "internalType": "uint256",
          "name": "quantity",
          "type": "uint256"
        }
      ],
      "name": "prePurchase",
      "outputs": [],
      "stateMutability": "payable",
      "type": "function"
    },
    {
      "inputs": [
        {
          "internalType": "bytes32",
          "name": "hash",
          "type": "bytes32"
        },
        {
          "components": [
            {
              "internalType": "uint8",
              "name": "v",
              "type": "uint8"
            },
            {
              "internalType": "bytes32",
              "name": "r",
              "type": "bytes32"
            },
            {
              "internalType": "bytes32",
              "name": "s",
              "type": "bytes32"
            }
          ],
          "internalType": "struct DecryptMarketplace.Sig",
          "name": "_sig",
          "type": "tuple"
        }
      ],
      "name": "recoverAddress",
      "outputs": [
        {
          "internalType": "address",
          "name": "",
          "type": "address"
        }
      ],
      "stateMutability": "view",
      "type": "function"
    },
    {
      "inputs": [],
      "name": "renounceOwnership",
      "outputs": [],
      "stateMutability": "nonpayable",
      "type": "function"
    },
    {
      "inputs": [
        {
          "internalType": "address",
          "name": "tokenAddress",
          "type": "address"
        },
        {
          "internalType": "bool",
          "name": "forbid",
          "type": "bool"
        }
      ],
      "name": "restrictTokenToThisMarketplace",
      "outputs": [],
      "stateMutability": "nonpayable",
      "type": "function"
    },
    {
      "inputs": [],
      "name": "royaltyLimit",
      "outputs": [
        {
          "internalType": "uint256",
          "name": "",
          "type": "uint256"
        }
      ],
      "stateMutability": "view",
      "type": "function"
    },
    {
      "inputs": [
        {
          "internalType": "address payable",
          "name": "_admin",
          "type": "address"
        }
      ],
      "name": "setAdminAddress",
      "outputs": [],
      "stateMutability": "nonpayable",
      "type": "function"
    },
    {
      "inputs": [
        {
          "internalType": "uint256",
          "name": "_marketplaceFee",
          "type": "uint256"
        }
      ],
      "name": "setMarketplaceFee",
      "outputs": [],
      "stateMutability": "nonpayable",
      "type": "function"
    },
    {
      "inputs": [
        {
          "internalType": "uint256",
          "name": "_royaltyLimit",
          "type": "uint256"
        }
      ],
      "name": "setRoyaltyLimit",
      "outputs": [],
      "stateMutability": "nonpayable",
      "type": "function"
    },
    {
      "inputs": [
        {
          "internalType": "uint256",
          "name": "_superAdminShare",
          "type": "uint256"
        }
      ],
      "name": "setSuperAdminShare",
      "outputs": [],
      "stateMutability": "nonpayable",
      "type": "function"
    },
    {
      "inputs": [],
      "name": "superAdminShare",
      "outputs": [
        {
          "internalType": "uint256",
          "name": "",
          "type": "uint256"
        }
      ],
      "stateMutability": "view",
      "type": "function"
    },
    {
      "inputs": [
        {
          "internalType": "address",
          "name": "newOwner",
          "type": "address"
        }
      ],
      "name": "transferOwnership",
      "outputs": [],
      "stateMutability": "nonpayable",
      "type": "function"
    },
    {
      "inputs": [
        {
          "internalType": "address",
          "name": "newImplementation",
          "type": "address"
        }
      ],
      "name": "upgradeTo",
      "outputs": [],
      "stateMutability": "nonpayable",
      "type": "function"
    },
    {
      "inputs": [
        {
          "internalType": "address",
          "name": "newImplementation",
          "type": "address"
        },
        {
          "internalType": "bytes",
          "name": "data",
          "type": "bytes"
        }
      ],
      "name": "upgradeToAndCall",
      "outputs": [],
      "stateMutability": "payable",
      "type": "function"
    },
    {
      "inputs": [
        {
          "internalType": "uint256",
          "name": "amount",
          "type": "uint256"
        },
        {
          "internalType": "address payable",
          "name": "receiver",
          "type": "address"
        },
        {
          "internalType": "address",
          "name": "tokenAddress",
          "type": "address"
        }
      ],
      "name": "withdrawERC20",
      "outputs": [],
      "stateMutability": "nonpayable",
      "type": "function"
    },
    {
      "inputs": [
        {
          "internalType": "uint256",
          "name": "amount",
          "type": "uint256"
        },
        {
          "internalType": "address payable",
          "name": "receiver",
          "type": "address"
        }
      ],
      "name": "withdrawETH",
      "outputs": [],
      "stateMutability": "nonpayable",
      "type": "function"
    }
  ],
  "bytecode": "0x60a06040523060805234801561001457600080fd5b5060805161592c62000046600039600081816106a0015281816106e00152818161085d015261089d015261592c6000f3fe6080604052600436106101665760003560e01c80636d22dca5116100d1578063b97a23191161008a578063f04bdf5c11610064578063f04bdf5c1461041f578063f2fde38b1461043f578063f851a4401461045f578063f9bc98c51461048057600080fd5b8063b97a23191461039e578063cd5269d9146103b3578063d3435d5a146103ff57600080fd5b80636d22dca5146102c7578063715018a614610300578063846f94051461031557806387e622511461032c5780638da5cb5b1461034c5780639407ea981461037e57600080fd5b80634f1ef286116101235780634f1ef286146102375780634f7cc86b1461024a57806350572f7e1461025d5780635d29dab414610270578063621daef5146102905780636a166964146102b057600080fd5b80631fe9f0301461016b5780632c1e816d14610195578063309d4480146101b757806336118b52146101d75780633659cfe6146101f75780634764c7eb14610217575b600080fd5b34801561017757600080fd5b506101826101315481565b6040519081526020015b60405180910390f35b3480156101a157600080fd5b506101b56101b0366004614e1a565b6104a0565b005b3480156101c357600080fd5b506101b56101d2366004614e45565b61056e565b3480156101e357600080fd5b506101b56101f2366004614e7e565b6105f7565b34801561020357600080fd5b506101b5610212366004614e1a565b610696565b34801561022357600080fd5b506101b5610232366004614ebc565b61075e565b6101b5610245366004614f61565b610853565b6101b561025836600461501b565b61090c565b6101b561026b3660046150a3565b6110ef565b34801561027c57600080fd5b506101b561028b3660046150f4565b611979565b34801561029c57600080fd5b506101826102ab366004614ebc565b6119dc565b3480156102bc57600080fd5b5061018261012f5481565b3480156102d357600080fd5b506101826102e2366004615136565b61013460209081526000928352604080842090915290825290205481565b34801561030c57600080fd5b506101b5611b63565b34801561032157600080fd5b506101826101305481565b34801561033857600080fd5b506101b5610347366004615162565b611b99565b34801561035857600080fd5b506033546001600160a01b03165b6040516001600160a01b03909116815260200161018c565b34801561038a57600080fd5b506101b5610399366004615162565b611c3b565b3480156103aa57600080fd5b50610366611cd8565b3480156103bf57600080fd5b506103ef6103ce366004615136565b61013360209081526000928352604080842090915290825290205460ff1681565b604051901515815260200161018c565b34801561040b57600080fd5b506101b561041a366004615162565b611ce7565b34801561042b57600080fd5b5061036661043a36600461517b565b611d84565b34801561044b57600080fd5b506101b561045a366004614e1a565b611db0565b34801561046b57600080fd5b5061013254610366906001600160a01b031681565b34801561048c57600080fd5b506101b561049b3660046151f1565b611e48565b6033546001600160a01b031633146104d35760405162461bcd60e51b81526004016104ca90615291565b60405180910390fd5b6001600160a01b0381166105185760405162461bcd60e51b815260206004820152600c60248201526b5a65726f206164647265737360a01b60448201526064016104ca565b61013280546001600160a01b0319166001600160a01b0383169081179091556040519081527f137b621413925496477d46e5055ac0d56178bdd724ba8bf843afceef18268ba3906020015b60405180910390a150565b6033546001600160a01b031633146105985760405162461bcd60e51b81526004016104ca90615291565b604051631303657760e01b815281151560048201526001600160a01b03831690631303657790602401600060405180830381600087803b1580156105db57600080fd5b505af11580156105ef573d6000803e3d6000fd5b505050505050565b6033546001600160a01b031633146106215760405162461bcd60e51b81526004016104ca90615291565b6001600160a01b03811661063457600080fd5b8160000361064157600080fd5b6040516001600160a01b038216908390600081818185875af1925050503d806000811461068a576040519150601f19603f3d011682016040523d82523d6000602084013e61068f565b606091505b5050505050565b6001600160a01b037f00000000000000000000000000000000000000000000000000000000000000001630036106de5760405162461bcd60e51b81526004016104ca906152c6565b7f00000000000000000000000000000000000000000000000000000000000000006001600160a01b0316610710611fb2565b6001600160a01b0316146107365760405162461bcd60e51b81526004016104ca90615312565b61073f81611fe0565b6040805160008082526020820190925261075b9183919061200a565b50565b3361076c6020830183614e1a565b6001600160a01b0316146107b05760405162461bcd60e51b815260206004820152600b60248201526a2bb937b7339037b93232b960a91b60448201526064016104ca565b60006107bb826119dc565b336000908152610133602090815260408083208484528252909120805460ff191660011790559091507fa5c746908baa785b9f3d9590ac1ead062b1cf3075c49c4ccbca0de38be55c1ea9061081290840184614e1a565b6108226040850160208601614e1a565b604085013561083760a087016080880161535e565b6040516108479493929190615395565b60405180910390a15050565b6001600160a01b037f000000000000000000000000000000000000000000000000000000000000000016300361089b5760405162461bcd60e51b81526004016104ca906152c6565b7f00000000000000000000000000000000000000000000000000000000000000006001600160a01b03166108cd611fb2565b6001600160a01b0316146108f35760405162461bcd60e51b81526004016104ca90615312565b6108fc82611fe0565b6109088282600161200a565b5050565b600260fd540361095e5760405162461bcd60e51b815260206004820152601f60248201527f5265656e7472616e637947756172643a207265656e7472616e742063616c6c0060448201526064016104ca565b600260fd556000600161097760a087016080880161535e565b60048111156109885761098861537f565b14806109b4575060046109a160a087016080880161535e565b60048111156109b2576109b261537f565b145b806109df575060026109cc60a085016080860161535e565b60048111156109dd576109dd61537f565b145b90508015610a5f57336109f56020870187614e1a565b6001600160a01b031614610a5a5760405162461bcd60e51b815260206004820152602660248201527f4f666665722073686f756c64206265206163636570746564206279207468652060448201526539b2b63632b960d11b60648201526084016104ca565b610ac3565b33610a6d6020850185614e1a565b6001600160a01b031614610ac35760405162461bcd60e51b815260206004820152601a60248201527f4275796572206164647265737320646f65736e74206d6174636800000000000060448201526064016104ca565b8015610b2a576000610adb60c0850160a08601614e1a565b6001600160a01b031603610b2a5760405162461bcd60e51b815260206004820152601660248201527527b7363c9022a9219918103337b91030bab1ba34b7b760511b60448201526064016104ca565b6000610b44610b3f6040860160208701614e1a565b61214e565b905060006003610b5a60a0890160808a0161535e565b6004811115610b6b57610b6b61537f565b14158015610b9a57506004610b8660a0890160808a0161535e565b6004811115610b9757610b9761537f565b14155b9050600082158015610ba95750815b90506000610bb6896119dc565b9050610bc56020880188614e1a565b6001600160a01b03163303610beb57610beb81610be560208c018c614e1a565b8a612282565b8415610c17576000610bfc886119dc565b9050610c1581610c0f60208b018b614e1a565b89612282565b505b818015610c5d57506101336000610c3160208c018c614e1a565b6001600160a01b031681526020808201929092526040908101600090812084825290925290205460ff16155b8015610c9f57506101346000610c7660208c018c614e1a565b6001600160a01b0316815260208082019290925260409081016000908120848252909252902054155b15610ce35760608901356101346000610cbb60208d018d614e1a565b6001600160a01b03168152602080820192909252604090810160009081208582529092529020555b610cf08988868689612354565b610cfd8988868685612751565b8115610d605760608701356101346000610d1a60208d018d614e1a565b6001600160a01b03166001600160a01b0316815260200190815260200160002060008381526020019081526020016000206000828254610d5a91906153f7565b90915550505b8115610e00576101346000610d7860208c018c614e1a565b6001600160a01b03166001600160a01b03168152602001908152602001600020600082815260200190815260200160002054600003610dfb5760016101336000610dc560208d018d614e1a565b6001600160a01b03168152602080820192909252604090810160009081208582529092529020805460ff19169115159190911790555b610e72565b6002610e1260a0890160808a0161535e565b6004811115610e2357610e2361537f565b14610e725760016101336000610e3c60208d018d614e1a565b6001600160a01b03168152602080820192909252604090810160009081208582529092529020805460ff19169115159190911790555b610e7f60208a018a614e1a565b6001600160a01b03163303610eed5760016101336000610ea260208b018b614e1a565b6001600160a01b03166001600160a01b031681526020019081526020016000206000610ecd8a6119dc565b81526020810191909152604001600020805460ff19169115159190911790555b8215610f3057610f30610f0660408b0160208c01614e1a565b60408b0135610f1860208d018d614e1a565b610f2560208c018c614e1a565b8b6060013589612b8d565b82610f4057610f40898886612e7f565b6040805160c0810190915260009080610f5c60208d018d614e1a565b6001600160a01b03168152602090810190610f79908b018b614e1a565b6001600160a01b031681526020018b6020016020810190610f9a9190614e1a565b6001600160a01b031681526020018b6040013581526020018960c0013581526020018b60a0016020810190610fcf9190614e1a565b6001600160a01b031690529050610fe68185613428565b8315611065577fb98b19c2f39a8910882da6b63c2dceedb6e0c627a20418117ee5312e03e0ad2261101a60208a018a614e1a565b61102760208d018d614e1a565b61103760408e0160208f01614e1a565b8b604001358c60c001358d606001356040516110589695949392919061540a565b60405180910390a16110de565b7f10ba6c13484dae8a68a77d9ccd88ae8d4a2527f9afc97eb9c24cbc284b3af5fe61109360208a018a614e1a565b6110a060208d018d614e1a565b6110b060408e0160208f01614e1a565b6110be6101008f018f615443565b8d60c001356040516110d59695949392919061548d565b60405180910390a15b5050600160fd555050505050505050565b600260fd54036111415760405162461bcd60e51b815260206004820152601f60248201527f5265656e7472616e637947756172643a207265656e7472616e742063616c6c0060448201526064016104ca565b600260fd556040516301ffc9a760e01b81526001600160a01b038516906301ffc9a7906111799063d5497c4d60e01b906004016154ee565b6020604051808303816000875af1158015611198573d6000803e3d6000fd5b505050506040513d601f19601f820116820180604052508101906111bc9190615503565b8061123857506040516301ffc9a760e01b81526001600160a01b038516906301ffc9a7906111f5906352210df160e11b906004016154ee565b6020604051808303816000875af1158015611214573d6000803e3d6000fd5b505050506040513d601f19601f820116820180604052508101906112389190615503565b61127d5760405162461bcd60e51b8152602060048201526016602482015275141c994814d85b19481b9bdd081cdd5c1c1bdc9d195960521b60448201526064016104ca565b336001600160a01b038616036112cb5760405162461bcd60e51b815260206004820152601360248201527221b0b73a10313abc903cb7bab9103a37b5b2b760691b60448201526064016104ca565b60006112d68561214e565b905060006112e48683613c7c565b9050600081801561131e57508280156113035750611303878988613d88565b8061131e57508215801561131e575061131e87898887613e7b565b60405163e985e9c560e01b81526001600160a01b038a811660048301523060248301529192509088169063e985e9c590604401602060405180830381865afa15801561136e573d6000803e3d6000fd5b505050506040513d601f19601f820116820180604052508101906113929190615503565b6113cd5760405162461bcd60e51b815260206004820152600c60248201526b139bdd08185c1c1c9bdd995960a21b60448201526064016104ca565b6000831561166e57846001146114185760405162461bcd60e51b815260206004820152601060248201526f45524337323120697320756e6971756560801b60448201526064016104ca565b818061149857506040516331a9108f60e11b8152600481018890526001600160a01b03808b1691908a1690636352211e90602401602060405180830381865afa158015611469573d6000803e3d6000fd5b505050506040513d601f19601f8201168201806040525081019061148d9190615520565b6001600160a01b0316145b6114d35760405162461bcd60e51b815260206004820152600c60248201526b2737ba1030b71037bbb732b960a11b60448201526064016104ca565b6040516307b2b94560e11b81523360048201526024810188905260448101879052600090819081906001600160a01b038c1690630f65728a90606401606060405180830381865afa15801561152c573d6000803e3d6000fd5b505050506040513d601f19601f82011682018060405250810190611550919061553d565b925092509250806115915760405162461bcd60e51b815260206004820152600b60248201526a139bdd08185b1b1bddd95960aa1b60448201526064016104ca565b604051631564ed2d60e31b8152600481018a905233602482015292935083926001600160a01b038c169063ab27696890604401600060405180830381600087803b1580156115de57600080fd5b505af11580156115f2573d6000803e3d6000fd5b505050506116058b8b8e338c6001612b8d565b60006040518060c001604052808e6001600160a01b03168152602001336001600160a01b031681526020018d6001600160a01b031681526020018c8152602001858152602001846001600160a01b03168152509050611665816001613428565b50505050611928565b60018510156116b55760405162461bcd60e51b815260206004820152601360248201527243616e74206275792030207175616e7469747960681b60448201526064016104ca565b81806117315750604051627eeac760e11b81526001600160a01b038a81166004830152602482018990528691908a169062fdd58e90604401602060405180830381865afa15801561170a573d6000803e3d6000fd5b505050506040513d601f19601f8201168201806040525081019061172e9190615575565b10155b6117715760405162461bcd60e51b81526020600482015260116024820152704e6f7420656e6f75676820746f6b656e7360781b60448201526064016104ca565b60405163863aa1c560e01b8152336004820152602481018890526044810186905260648101879052600090819081906001600160a01b038c169063863aa1c590608401606060405180830381865afa1580156117d1573d6000803e3d6000fd5b505050506040513d601f19601f820116820180604052508101906117f5919061553d565b925092509250806118365760405162461bcd60e51b815260206004820152600b60248201526a139bdd08185b1b1bddd95960aa1b60448201526064016104ca565b604051630a6e7bb160e31b8152336004820152602481018b905260448101899052606481018a905292935083926001600160a01b038c1690635373dd8890608401600060405180830381600087803b15801561189157600080fd5b505af11580156118a5573d6000803e3d6000fd5b505050506118b88b8b8e338c6000612b8d565b60006040518060c001604052808e6001600160a01b03168152602001336001600160a01b031681526020018d6001600160a01b031681526020018c8152602001858b611904919061558e565b8152602001846001600160a01b03168152509050611923816001613428565b505050505b7fb98b19c2f39a8910882da6b63c2dceedb6e0c627a20418117ee5312e03e0ad22338a8a8a858a6040516119619695949392919061540a565b60405180910390a15050600160fd5550505050505050565b6033546001600160a01b031633146119a35760405162461bcd60e51b81526004016104ca90615291565b6001600160a01b0382166119b657600080fd5b826000036119c357600080fd5b6119d76001600160a01b0382168385613f77565b505050565b6000611b5d7f931e0ed17c72aa650a700500771d394d44b10a685095fcc71cd489df15db87fe611a0f6020850185614e1a565b611a1f6040860160208701614e1a565b60408601356060870135611a3960a0890160808a0161535e565b6004811115611a4a57611a4a61537f565b611a5a60c08a0160a08b01614e1a565b60c08a013560e08b0135611a726101008d018d615443565b604051602001611a839291906155a5565b60408051601f198184030181529190528051602090910120611aa96101208e018e615443565b604051602001611aba9291906155a5565b60408051808303601f1901815282825280516020918201209083019c909c526001600160a01b039a8b16908201529789166060890152608088019690965260a087019490945260c086019290925290941660e0840152610100830193909352610120820192909252610140808201929092526101608101929092528401356101808201526101a00160405160208183030381529060405280519060200120613fda565b92915050565b6033546001600160a01b03163314611b8d5760405162461bcd60e51b81526004016104ca90615291565b611b976000614028565b565b6033546001600160a01b03163314611bc35760405162461bcd60e51b81526004016104ca90615291565b612710811115611c055760405162461bcd60e51b815260206004820152600d60248201526c496e76616c69642076616c756560981b60448201526064016104ca565b6101308190556040518181527f323ef8c675e623894b3d7f6be20f4301a1a130108f97a3b29c1208a81a9c50d790602001610563565b6033546001600160a01b03163314611c655760405162461bcd60e51b81526004016104ca90615291565b61251c811115611ca25760405162461bcd60e51b81526020600482015260086024820152674f7665722039352560c01b60448201526064016104ca565b61012f8190556040518181527fa29c42da2d0ba4112644aa2f0c9df23b387e88c8448fbb9afc0710cd2ad4afce90602001610563565b6000611ce2611fb2565b905090565b6033546001600160a01b03163314611d115760405162461bcd60e51b81526004016104ca90615291565b61251c811115611d4e5760405162461bcd60e51b81526020600482015260086024820152674f7665722039352560c01b60448201526064016104ca565b6101318190556040518181527f57e5b5038264ffc94762c5e554e4a3497b46983e124abce395f517a744bea66690602001610563565b600080611da784611d9860208601866155ce565b8560200135866040013561407a565b50949350505050565b6033546001600160a01b03163314611dda5760405162461bcd60e51b81526004016104ca90615291565b6001600160a01b038116611e3f5760405162461bcd60e51b815260206004820152602660248201527f4f776e61626c653a206e6577206f776e657220697320746865207a65726f206160448201526564647265737360d01b60648201526084016104ca565b61075b81614028565b600054610100900460ff1680611e61575060005460ff16155b611e7d5760405162461bcd60e51b81526004016104ca906155f1565b600054610100900460ff16158015611e9f576000805461ffff19166101011790555b611ea7614167565b611eaf6141e2565b611f2289898080601f01602080910402602001604051908101604052809392919081815260200183838082843760009201919091525050604080516020601f8d018190048102820181019092528b815292508b91508a908190840183828082843760009201919091525061424992505050565b6001600160a01b038316611f675760405162461bcd60e51b815260206004820152600c60248201526b5a65726f206164647265737360a01b60448201526064016104ca565b61012f85905561013084905561013280546001600160a01b0319166001600160a01b0385161790556101318290558015611fa7576000805461ff00191690555b505050505050505050565b7f360894a13ba1a3210667c828492db98dca3e2076cc3735a920a3ca505d382bbc546001600160a01b031690565b6033546001600160a01b0316331461075b5760405162461bcd60e51b81526004016104ca90615291565b6000612014611fb2565b905061201f846142c0565b60008351118061202c5750815b1561203d5761203b8484614365565b505b7f4910fdfa16fed3260ed0e7147f7cc6da11a60208b5b9406d12a635614ffd9143805460ff1661068f57805460ff191660011781556040516001600160a01b03831660248201526120bc90869060440160408051601f198184030181529190526020810180516001600160e01b0316631b2ce7f360e11b179052614365565b50805460ff191681556120cd611fb2565b6001600160a01b0316826001600160a01b0316146121455760405162461bcd60e51b815260206004820152602f60248201527f45524331393637557067726164653a207570677261646520627265616b73206660448201526e75727468657220757067726164657360881b60648201526084016104ca565b61068f85614447565b600080826001600160a01b03166301ffc9a76380ac58cd60e01b6040518263ffffffff1660e01b815260040161218491906154ee565b6020604051808303816000875af11580156121a3573d6000803e3d6000fd5b505050506040513d601f19601f820116820180604052508101906121c79190615503565b9050808061224657506040516301ffc9a760e01b81526001600160a01b038416906301ffc9a79061220390636cdb3d1360e11b906004016154ee565b6020604051808303816000875af1158015612222573d6000803e3d6000fd5b505050506040513d601f19601f820116820180604052508101906122469190615503565b611b5d5760405162461bcd60e51b815260206004820152600d60248201526c2ab735b737bbb7102a37b5b2b760991b60448201526064016104ca565b6001600160a01b03821660009081526101336020908152604080832086845290915290205460ff16156122ef5760405162461bcd60e51b815260206004820152601560248201527443616e63656c6c6564206f7220636f6d706c65746560581b60448201526064016104ca565b60006122fb8483611d84565b9050806001600160a01b0316836001600160a01b03161461234e5760405162461bcd60e51b815260206004820152600d60248201526c426164207369676e617475726560981b60448201526064016104ca565b50505050565b600061236f6123696040880160208901614e1a565b85613c7c565b905082156126af57612385610100870187615443565b1590506123c85760405162461bcd60e51b815260206004820152601160248201527057726f6e67206c697374696e675479706560781b60448201526064016104ca565b831561253e57846060013560011480156123e6575085606001356001145b6124235760405162461bcd60e51b815260206004820152600e60248201526d4e6f6e2d31207175616e7469747960901b60448201526064016104ca565b808015612455575061245561243e6040880160208901614e1a565b61244b6020890189614e1a565b8860400135613d88565b806124fe57506124686020870187614e1a565b6001600160a01b03166124816040880160208901614e1a565b6001600160a01b0316636352211e88604001356040518263ffffffff1660e01b81526004016124b291815260200190565b602060405180830381865afa1580156124cf573d6000803e3d6000fd5b505050506040513d601f19601f820116820180604052508101906124f39190615520565b6001600160a01b0316145b6125395760405162461bcd60e51b815260206004820152600c60248201526b2737ba1030b71037bbb732b960a11b60448201526064016104ca565b6126af565b60008560600135118015612556575060008660600135115b61258f5760405162461bcd60e51b815260206004820152600a60248201526930207175616e7469747960b01b60448201526064016104ca565b8080156125c657506125c66125aa6040880160208901614e1a565b6125b76020890189614e1a565b88604001358860600135613e7b565b8061266f575060608501356125e16040880160208901614e1a565b6001600160a01b031662fdd58e6125fb60208a018a614e1a565b604080516001600160e01b031960e085901b1681526001600160a01b0390921660048301528a01356024820152604401602060405180830381865afa158015612648573d6000803e3d6000fd5b505050506040513d601f19601f8201168201806040525081019061266c9190615575565b10155b6126af5760405162461bcd60e51b81526020600482015260116024820152704e6f7420656e6f75676820746f6b656e7360781b60448201526064016104ca565b8161270d57428660e00135101580156126cc5750428560e0013510155b6127085760405162461bcd60e51b815260206004820152600d60248201526c27bb32b9323ab29037b93232b960991b60448201526064016104ca565b6105ef565b428560e0013510156105ef5760405162461bcd60e51b815260206004820152600d60248201526c27bb32b9323ab29037b33332b960991b60448201526064016104ca565b61275e6020860186614e1a565b6001600160a01b03166127746020860186614e1a565b6001600160a01b0316036127bc5760405162461bcd60e51b815260206004820152600f60248201526e213abcb2b9101e9e9029b2b63632b960891b60448201526064016104ca565b6127cc6040860160208701614e1a565b6001600160a01b03166127e56040860160208701614e1a565b6001600160a01b03161461282e5760405162461bcd60e51b815260206004820152601060248201526f446966666572656e7420746f6b656e7360801b60448201526064016104ca565b836040013585604001351480612842575081155b8061286d5750600261285a60a086016080870161535e565b600481111561286b5761286b61537f565b145b6128af5760405162461bcd60e51b81526020600482015260136024820152720a8ded6cadc9288e640c8dedce840dac2e8c6d606b1b60448201526064016104ca565b821580156128ba5750815b1561294b57606084013561013460006128d66020890189614e1a565b6001600160a01b03166001600160a01b03168152602001908152602001600020600083815260200190815260200160002054101561294b5760405162461bcd60e51b815260206004820152601260248201527143616e74206275792074686174206d616e7960701b60448201526064016104ca565b61295b60a085016080860161535e565b600481111561296c5761296c61537f565b61297c60a087016080880161535e565b600481111561298d5761298d61537f565b146129da5760405162461bcd60e51b815260206004820152601960248201527f4c697374696e67207479706520646f65736e74206d617463680000000000000060448201526064016104ca565b6129ea60c0850160a08601614e1a565b6001600160a01b0316612a0360c0870160a08801614e1a565b6001600160a01b031614612a595760405162461bcd60e51b815260206004820152601860248201527f5061796d656e7420746f6b656e20646f6e74206d61746368000000000000000060448201526064016104ca565b818015612aa157508360c001358560c0013511158015612a765750825b80612aa157508360c0013584606001358660c00135612a95919061558e565b11158015612aa1575082155b80612abd575081158015612abd57508360c001358560c0013511155b612afe5760405162461bcd60e51b815260206004820152601260248201527115985b1d59481a5cc81d1bdbc81cdb585b1b60721b60448201526064016104ca565b612b0c610100850185615443565b9050612b1c610100870187615443565b9050148015612b485750612b34610120850185615443565b9050612b44610120870187615443565b9050145b61068f5760405162461bcd60e51b81526020600482015260166024820152750a8ded6cadc40d8d2e6e8e640c8dedce840dac2e8c6d60531b60448201526064016104ca565b6000612b998783613c7c565b90508115612c8e576000818015612bb65750612bb6888789613d88565b90508015612c255760405163336b44bb60e01b81526001600160a01b0386811660048301526024820189905289169063336b44bb90604401600060405180830381600087803b158015612c0857600080fd5b505af1158015612c1c573d6000803e3d6000fd5b50505050612c88565b604051632142170760e11b81526001600160a01b038916906342842e0e90612c5590899089908c9060040161563f565b600060405180830381600087803b158015612c6f57600080fd5b505af1158015612c83573d6000803e3d6000fd5b505050505b50612e76565b6000818015612ca45750612ca488878987613e7b565b90508015612e0f57604051627eeac760e11b81526001600160a01b03878116600483015260248201899052600091908a169062fdd58e90604401602060405180830381865afa158015612cfb573d6000803e3d6000fd5b505050506040513d601f19601f82011682018060405250810190612d1f9190615575565b90506000612d2d82876153f7565b604051632741416360e01b81526001600160a01b038981166004830152602482018c905260448201839052919250908b1690632741416390606401600060405180830381600087803b158015612d8257600080fd5b505af1158015612d96573d6000803e3d6000fd5b505050506000821115612e0857604051637921219560e11b81526001600160a01b038b169063f242432a90612dd5908b908b908e908890600401615663565b600060405180830381600087803b158015612def57600080fd5b505af1158015612e03573d6000803e3d6000fd5b505050505b5050612e74565b604051637921219560e11b81526001600160a01b0389169063f242432a90612e4190899089908c908a90600401615663565b600060405180830381600087803b158015612e5b57600080fd5b505af1158015612e6f573d6000803e3d6000fd5b505050505b505b50505050505050565b6000612e916040840160208501614e1a565b90506000612eae612ea86040870160208801614e1a565b84613c7c565b905060005b612ec1610100870187615443565b90508110156105ef57612ed8610100860186615443565b82818110612ee857612ee861569b565b9050602002013586806101000190612f009190615443565b83818110612f1057612f1061569b565b9050602002013514612f545760405162461bcd60e51b815260206004820152600d60248201526c15dc9bdb99c81d1bdad95b9259609a1b60448201526064016104ca565b612f62610120860186615443565b82818110612f7257612f7261569b565b9050602002013586806101200190612f8a9190615443565b83818110612f9a57612f9a61569b565b9050602002013514612fdf5760405162461bcd60e51b815260206004820152600e60248201526d57726f6e67207175616e7469747960901b60448201526064016104ca565b6000612fef610100880188615443565b83818110612fff57612fff61569b565b90506020020135905060008780610120019061301b9190615443565b8481811061302b5761302b61569b565b9050602002013590508515613189578060011461307d5760405162461bcd60e51b815260206004820152601060248201526f45524337323120697320756e6971756560801b60448201526064016104ca565b8380156130ab57506130ab61309860408a0160208b01614e1a565b6130a560208b018b614e1a565b84613d88565b15613141576130c06040890160208a01614e1a565b6001600160a01b031663336b44bb6130db60208a018a614e1a565b6040516001600160e01b031960e084901b1681526001600160a01b039091166004820152602481018590526044015b600060405180830381600087803b15801561312457600080fd5b505af1158015613138573d6000803e3d6000fd5b50505050613413565b6001600160a01b0385166342842e0e61315d60208b018b614e1a565b61316a60208b018b614e1a565b856040518463ffffffff1660e01b815260040161310a9392919061563f565b8380156131b857506131b86131a460408a0160208b01614e1a565b6131b160208b018b614e1a565b8484613e7b565b156133965760006131cf60408a0160208b01614e1a565b6001600160a01b031662fdd58e6131e960208c018c614e1a565b6040516001600160e01b031960e084901b1681526001600160a01b03909116600482015260248101869052604401602060405180830381865afa158015613234573d6000803e3d6000fd5b505050506040513d601f19601f820116820180604052508101906132589190615575565b9050600061326682846153f7565b905061327860408b0160208c01614e1a565b6001600160a01b0316632741416361329360208c018c614e1a565b6040516001600160e01b031960e084901b1681526001600160a01b0390911660048201526024810187905260448101849052606401600060405180830381600087803b1580156132e257600080fd5b505af11580156132f6573d6000803e3d6000fd5b50505050600082111561338f5761331360408b0160208c01614e1a565b6001600160a01b031663f242432a61332e60208d018d614e1a565b61333b60208d018d614e1a565b87866040518563ffffffff1660e01b815260040161335c9493929190615663565b600060405180830381600087803b15801561337657600080fd5b505af115801561338a573d6000803e3d6000fd5b505050505b5050613413565b6001600160a01b03851663f242432a6133b260208b018b614e1a565b6133bf60208b018b614e1a565b85856040518563ffffffff1660e01b81526004016133e09493929190615663565b600060405180830381600087803b1580156133fa57600080fd5b505af115801561340e573d6000803e3d6000fd5b505050505b50508080613420906156b1565b915050612eb3565b60a082015160808301516001600160a01b0390911615801591906135cb57608084015160a085015160208601516040516370a0823160e01b81526001600160a01b0391821660048201529116906370a0823190602401602060405180830381865afa15801561349b573d6000803e3d6000fd5b505050506040513d601f19601f820116820180604052508101906134bf9190615575565b10156135025760405162461bcd60e51b81526020600482015260126024820152714e6f7420656e6f7567682062616c616e636560701b60448201526064016104ca565b608084015160a08501516020860151604051636eb1769f60e11b81526001600160a01b03918216600482015230602482015291169063dd62ed3e90604401602060405180830381865afa15801561355d573d6000803e3d6000fd5b505050506040513d601f19601f820116820180604052508101906135819190615575565b10156135c65760405162461bcd60e51b81526020600482015260146024820152734e6f7420656e6f75676820616c6c6f77616e636560601b60448201526064016104ca565b613614565b83608001513410156136145760405162461bcd60e51b81526020600482015260126024820152714e6f7420656e6f756768207b76616c75657d60701b60448201526064016104ca565b83604001516001600160a01b03166301ffc9a7631189900560e11b6040518263ffffffff1660e01b815260040161364b91906154ee565b6020604051808303816000875af115801561366a573d6000803e3d6000fd5b505050506040513d601f19601f8201168201806040525081019061368e9190615503565b15613a1357600084604001519050806001600160a01b031663012e46b66040518163ffffffff1660e01b81526004016020604051808303816000875af11580156136dc573d6000803e3d6000fd5b505050506040513d601f19601f820116820180604052508101906137009190615503565b801561377257506000816001600160a01b0316639fc28f816040518163ffffffff1660e01b8152600401600060405180830381865afa158015613747573d6000803e3d6000fd5b505050506040513d6000823e601f3d908101601f1916820160405261376f91908101906156ca565b51115b1561395d578380156137fd5750606085015160405163120dd7e160e21b81526000916001600160a01b038416916348375f84916137b59160040190815260200190565b600060405180830381865afa1580156137d2573d6000803e3d6000fd5b505050506040513d6000823e601f3d908101601f191682016040526137fa91908101906156ca565b51115b1561391d57606085015160405163120dd7e160e21b81526000916001600160a01b038416916348375f84916138389160040190815260200190565b600060405180830381865afa158015613855573d6000803e3d6000fd5b505050506040513d6000823e601f3d908101601f1916820160405261387d91908101906156ca565b905060008087604001516001600160a01b0316632a55205a89606001518a608001516040518363ffffffff1660e01b81526004016138c5929190918252602082015260400190565b6040805180830381865afa1580156138e1573d6000803e3d6000fd5b505050506040513d601f19601f820116820180604052508101906139059190615795565b9150915061391588838386614487565b505050613a0d565b6000816001600160a01b0316639fc28f816040518163ffffffff1660e01b8152600401600060405180830381865afa158015613855573d6000803e3d6000fd5b60008086604001516001600160a01b0316632a55205a886060015189608001516040518363ffffffff1660e01b81526004016139a3929190918252602082015260400190565b6040805180830381865afa1580156139bf573d6000803e3d6000fd5b505050506040513d601f19601f820116820180604052508101906139e39190615795565b91509150613a0a876020015188600001518960a001518a6080015186868d604001516147ae565b50505b50613c0d565b83604001516001600160a01b03166301ffc9a763152a902d60e11b6040518263ffffffff1660e01b8152600401613a4a91906154ee565b6020604051808303816000875af1158015613a69573d6000803e3d6000fd5b505050506040513d601f19601f82011682018060405250810190613a8d9190615503565b15613b465760008085604001516001600160a01b0316632a55205a876060015188608001516040518363ffffffff1660e01b8152600401613ad8929190918252602082015260400190565b6040805180830381865afa158015613af4573d6000803e3d6000fd5b505050506040513d601f19601f82011682018060405250810190613b189190615795565b91509150613b3f866020015187600001518860a00151896080015186868c604001516147ae565b5050613c0d565b600061271061012f5483613b5a919061558e565b613b6491906157c3565b90506000613b7282846153f7565b9050613b88848760a00151848960200151614978565b8315613bb5576020860151865160a0880151613bb0926001600160a01b039091169184614a38565b613c0a565b85516040516001600160a01b03909116908290600081818185875af1925050503d8060008114613c01576040519150601f19603f3d011682016040523d82523d6000602084013e613c06565b606091505b5050505b50505b60a08401516001600160a01b031661234e576000613c2b82346153f7565b905084602001516001600160a01b03168160405160006040518083038185875af1925050503d8060008114612e74576040519150601f19603f3d011682016040523d82523d6000602084013e612e74565b6000818015613cfc57506040516301ffc9a760e01b81526001600160a01b038416906301ffc9a790613cb99063f19b019960e01b906004016154ee565b6020604051808303816000875af1158015613cd8573d6000803e3d6000fd5b505050506040513d601f19601f82011682018060405250810190613cfc9190615503565b80613d81575081158015613d8157506040516301ffc9a760e01b81526001600160a01b038416906301ffc9a790613d3e9063155c914760e31b906004016154ee565b6020604051808303816000875af1158015613d5d573d6000803e3d6000fd5b505050506040513d601f19601f82011682018060405250810190613d819190615503565b9392505050565b604051634f558e7960e01b8152600481018290526000906001600160a01b03851690634f558e7990602401602060405180830381865afa158015613dd0573d6000803e3d6000fd5b505050506040513d601f19601f82011682018060405250810190613df49190615503565b158015613e735750826001600160a01b0316846001600160a01b0316638da5cb5b6040518163ffffffff1660e01b8152600401602060405180830381865afa158015613e44573d6000803e3d6000fd5b505050506040513d601f19601f82011682018060405250810190613e689190615520565b6001600160a01b0316145b949350505050565b604051627eeac760e11b81526001600160a01b03848116600483015260248201849052600091839187169062fdd58e90604401602060405180830381865afa158015613ecb573d6000803e3d6000fd5b505050506040513d601f19601f82011682018060405250810190613eef9190615575565b108015613f6e5750836001600160a01b0316856001600160a01b0316638da5cb5b6040518163ffffffff1660e01b8152600401602060405180830381865afa158015613f3f573d6000803e3d6000fd5b505050506040513d601f19601f82011682018060405250810190613f639190615520565b6001600160a01b0316145b95945050505050565b6040516001600160a01b0383166024820152604481018290526119d790849063a9059cbb60e01b906064015b60408051601f198184030181529190526020810180516001600160e01b03166001600160e01b031990931692909217909152614a59565b6000611b5d613fe7614b2b565b8360405161190160f01b6020820152602281018390526042810182905260009060620160405160208183030381529060405280519060200120905092915050565b603380546001600160a01b038381166001600160a01b0319831681179093556040519116919082907f8be0079c531659141344cd1fd0a4f28419497f9722a3daafe3b4186f6b6457e090600090a35050565b6000807f7fffffffffffffffffffffffffffffff5d576e7357a4501ddfe92f46681b20a08311156140b1575060009050600361415e565b8460ff16601b141580156140c957508460ff16601c14155b156140da575060009050600461415e565b6040805160008082526020820180845289905260ff881692820192909252606081018690526080810185905260019060a0016020604051602081039080840390855afa15801561412e573d6000803e3d6000fd5b5050604051601f1901519150506001600160a01b0381166141575760006001925092505061415e565b9150600090505b94509492505050565b600054610100900460ff1680614180575060005460ff16155b61419c5760405162461bcd60e51b81526004016104ca906155f1565b600054610100900460ff161580156141be576000805461ffff19166101011790555b6141c6614ba6565b6141ce614c10565b801561075b576000805461ff001916905550565b600054610100900460ff16806141fb575060005460ff16155b6142175760405162461bcd60e51b81526004016104ca906155f1565b600054610100900460ff16158015614239576000805461ffff19166101011790555b614241614ba6565b6141ce614ba6565b600054610100900460ff1680614262575060005460ff16155b61427e5760405162461bcd60e51b81526004016104ca906155f1565b600054610100900460ff161580156142a0576000805461ffff19166101011790555b6142aa8383614c70565b80156119d7576000805461ff0019169055505050565b803b6143245760405162461bcd60e51b815260206004820152602d60248201527f455243313936373a206e657720696d706c656d656e746174696f6e206973206e60448201526c1bdd08184818dbdb9d1c9858dd609a1b60648201526084016104ca565b7f360894a13ba1a3210667c828492db98dca3e2076cc3735a920a3ca505d382bbc80546001600160a01b0319166001600160a01b0392909216919091179055565b6060823b6143c45760405162461bcd60e51b815260206004820152602660248201527f416464726573733a2064656c65676174652063616c6c20746f206e6f6e2d636f6044820152651b9d1c9858dd60d21b60648201526084016104ca565b600080846001600160a01b0316846040516143df9190615809565b600060405180830381855af49150503d806000811461441a576040519150601f19603f3d011682016040523d82523d6000602084013e61441f565b606091505b5091509150613f6e82826040518060600160405280602781526020016158d060279139614cfa565b614450816142c0565b6040516001600160a01b038216907fbc7cd75a20ee27fd9adebab32041f755214dbc6bffa90cc0225b39da2e5c2d3b90600090a250565b6080840151801561068f5760a085015161012f546001600160a01b039091161515908490600090612710906144bc908661558e565b6144c691906157c3565b9050600061271061013154866144dc919061558e565b6144e691906157c3565b9050808311156144f4578092505b60008361450184886153f7565b61450b91906153f7565b9050614521858b60a00151858d60200151614978565b841561455457801561454f5760208a01518a5160a08c015161454f926001600160a01b039091169184614a38565b6145af565b80156145af5789516040516001600160a01b03909116908290600081818185875af1925050503d80600081146145a6576040519150601f19603f3d011682016040523d82523d6000602084013e6145ab565b606091505b5050505b50508115905061475e578060005b85518110156146d75760008682815181106145da576145da61569b565b602002602001015160000151905060006127108884815181106145ff576145ff61569b565b60200260200101516020015186614616919061558e565b61462091906157c3565b90506000811180156146325750808410155b156146c25785156146635760208b015160a08c015161465e916001600160a01b03909116908484614a38565b6146b5565b6040516001600160a01b038316908290600081818185875af1925050503d80600081146146ac576040519150601f19603f3d011682016040523d82523d6000602084013e6146b1565b606091505b5050505b6146bf81856153f7565b93505b505080806146cf906156b1565b9150506145bd565b50801561475c57821561470a57602088015160a0890151614705916001600160a01b03909116908984614a38565b61475c565b6040516001600160a01b038816908290600081818185875af1925050503d8060008114614753576040519150601f19603f3d011682016040523d82523d6000602084013e614758565b606091505b5050505b505b8015612e76577f9b613e301dc40dd14477f2522be85511f4ec9e592e1bee1320a05e12dbf75229876040015187868460405161479d9493929190615825565b60405180910390a150505050505050565b8315612e765761012f546001600160a01b038616151590600090612710906147d6908861558e565b6147e091906157c3565b90506000849050600061271061013154896147fb919061558e565b61480591906157c3565b905080821115614813578091505b600082614820858b6153f7565b61482a91906153f7565b9050614838858b868f614978565b8415614879578215614859576148596001600160a01b038b168d8a86614a38565b8015614874576148746001600160a01b038b168d8d84614a38565b614929565b82156148d1576040516001600160a01b038916908490600081818185875af1925050503d80600081146148c8576040519150601f19603f3d011682016040523d82523d6000602084013e6148cd565b606091505b5050505b8015614929576040516001600160a01b038c16908290600081818185875af1925050503d8060008114614920576040519150601f19603f3d011682016040523d82523d6000602084013e614925565b606091505b5050505b8215612e6f577fbdf0502df1b76d58521b2a929580ca100c2121e0ae38717b260d9cfa44c23b328689856040516149629392919061563f565b60405180910390a1505050505050505050505050565b6000612710610130548461498c919061558e565b61499691906157c3565b905060006149a482856153f7565b905085156149ea5781156149c7576149c76001600160a01b038616843085614a38565b80156127085761013254612708906001600160a01b038781169186911684614a38565b610132546040516001600160a01b03909116908290600081818185875af1925050503d8060008114611fa7576040519150601f19603f3d011682016040523d82523d6000602084013e611fa7565b61234e846323b872dd60e01b858585604051602401613fa39392919061563f565b6000614aae826040518060400160405280602081526020017f5361666545524332303a206c6f772d6c6576656c2063616c6c206661696c6564815250856001600160a01b0316614d339092919063ffffffff16565b8051909150156119d75780806020019051810190614acc9190615503565b6119d75760405162461bcd60e51b815260206004820152602a60248201527f5361666545524332303a204552433230206f7065726174696f6e20646964206e6044820152691bdd081cdd58d8d9595960b21b60648201526084016104ca565b6000611ce27f8b73c3c69bb8fe3d512ecc4cf759cc79239f7b179b0ffacaa9a75d522b39400f614b5a60c95490565b60ca546040805160208101859052908101839052606081018290524660808201523060a082015260009060c0016040516020818303038152906040528051906020012090509392505050565b600054610100900460ff1680614bbf575060005460ff16155b614bdb5760405162461bcd60e51b81526004016104ca906155f1565b600054610100900460ff161580156141ce576000805461ffff1916610101179055801561075b576000805461ff001916905550565b600054610100900460ff1680614c29575060005460ff16155b614c455760405162461bcd60e51b81526004016104ca906155f1565b600054610100900460ff16158015614c67576000805461ffff19166101011790555b6141ce33614028565b600054610100900460ff1680614c89575060005460ff16155b614ca55760405162461bcd60e51b81526004016104ca906155f1565b600054610100900460ff16158015614cc7576000805461ffff19166101011790555b825160208085019190912083519184019190912060c99190915560ca5580156119d7576000805461ff0019169055505050565b60608315614d09575081613d81565b825115614d195782518084602001fd5b8160405162461bcd60e51b81526004016104ca919061589c565b6060613e73848460008585843b614d8c5760405162461bcd60e51b815260206004820152601d60248201527f416464726573733a2063616c6c20746f206e6f6e2d636f6e747261637400000060448201526064016104ca565b600080866001600160a01b03168587604051614da89190615809565b60006040518083038185875af1925050503d8060008114614de5576040519150601f19603f3d011682016040523d82523d6000602084013e614dea565b606091505b5091509150614dfa828286614cfa565b979650505050505050565b6001600160a01b038116811461075b57600080fd5b600060208284031215614e2c57600080fd5b8135613d8181614e05565b801515811461075b57600080fd5b60008060408385031215614e5857600080fd5b8235614e6381614e05565b91506020830135614e7381614e37565b809150509250929050565b60008060408385031215614e9157600080fd5b823591506020830135614e7381614e05565b60006101608284031215614eb657600080fd5b50919050565b600060208284031215614ece57600080fd5b813567ffffffffffffffff811115614ee557600080fd5b613e7384828501614ea3565b634e487b7160e01b600052604160045260246000fd5b6040805190810167ffffffffffffffff81118282101715614f2a57614f2a614ef1565b60405290565b604051601f8201601f1916810167ffffffffffffffff81118282101715614f5957614f59614ef1565b604052919050565b60008060408385031215614f7457600080fd5b8235614f7f81614e05565b915060208381013567ffffffffffffffff80821115614f9d57600080fd5b818601915086601f830112614fb157600080fd5b813581811115614fc357614fc3614ef1565b614fd5601f8201601f19168501614f30565b91508082528784828501011115614feb57600080fd5b80848401858401376000848284010152508093505050509250929050565b600060608284031215614eb657600080fd5b600080600080610100858703121561503257600080fd5b843567ffffffffffffffff8082111561504a57600080fd5b61505688838901614ea3565b95506150658860208901615009565b9450608087013591508082111561507b57600080fd5b5061508887828801614ea3565b9250506150988660a08701615009565b905092959194509250565b600080600080600060a086880312156150bb57600080fd5b85356150c681614e05565b945060208601356150d681614e05565b94979496505050506040830135926060810135926080909101359150565b60008060006060848603121561510957600080fd5b83359250602084013561511b81614e05565b9150604084013561512b81614e05565b809150509250925092565b6000806040838503121561514957600080fd5b823561515481614e05565b946020939093013593505050565b60006020828403121561517457600080fd5b5035919050565b6000806080838503121561518e57600080fd5b8235915061519f8460208501615009565b90509250929050565b60008083601f8401126151ba57600080fd5b50813567ffffffffffffffff8111156151d257600080fd5b6020830191508360208285010111156151ea57600080fd5b9250929050565b60008060008060008060008060c0898b03121561520d57600080fd5b883567ffffffffffffffff8082111561522557600080fd5b6152318c838d016151a8565b909a50985060208b013591508082111561524a57600080fd5b506152578b828c016151a8565b9097509550506040890135935060608901359250608089013561527981614e05565b8092505060a089013590509295985092959890939650565b6020808252818101527f4f776e61626c653a2063616c6c6572206973206e6f7420746865206f776e6572604082015260600190565b6020808252602c908201527f46756e6374696f6e206d7573742062652063616c6c6564207468726f7567682060408201526b19195b1959d85d1958d85b1b60a21b606082015260800190565b6020808252602c908201527f46756e6374696f6e206d7573742062652063616c6c6564207468726f7567682060408201526b6163746976652070726f787960a01b606082015260800190565b60006020828403121561537057600080fd5b813560058110613d8157600080fd5b634e487b7160e01b600052602160045260246000fd5b6001600160a01b038581168252841660208201526040810183905260808101600583106153d257634e487b7160e01b600052602160045260246000fd5b82606083015295945050505050565b634e487b7160e01b600052601160045260246000fd5b81810381811115611b5d57611b5d6153e1565b6001600160a01b03968716815294861660208601529290941660408401526060830152608082019290925260a081019190915260c00190565b6000808335601e1984360301811261545a57600080fd5b83018035915067ffffffffffffffff82111561547557600080fd5b6020019150600581901b36038213156151ea57600080fd5b6001600160a01b03878116825286811660208301528516604082015260a060608201819052810183905260006001600160fb1b038411156154cd57600080fd5b8360051b808660c08501376080830193909352500160c00195945050505050565b6001600160e01b031991909116815260200190565b60006020828403121561551557600080fd5b8151613d8181614e37565b60006020828403121561553257600080fd5b8151613d8181614e05565b60008060006060848603121561555257600080fd5b83519250602084015161556481614e05565b604085015190925061512b81614e37565b60006020828403121561558757600080fd5b5051919050565b8082028115828204841417611b5d57611b5d6153e1565b60006001600160fb1b038311156155bb57600080fd5b8260051b80858437919091019392505050565b6000602082840312156155e057600080fd5b813560ff81168114613d8157600080fd5b6020808252602e908201527f496e697469616c697a61626c653a20636f6e747261637420697320616c72656160408201526d191e481a5b9a5d1a585b1a5e995960921b606082015260800190565b6001600160a01b039384168152919092166020820152604081019190915260600190565b6001600160a01b0394851681529290931660208301526040820152606081019190915260a06080820181905260009082015260c00190565b634e487b7160e01b600052603260045260246000fd5b6000600182016156c3576156c36153e1565b5060010190565b600060208083850312156156dd57600080fd5b825167ffffffffffffffff808211156156f557600080fd5b818501915085601f83011261570957600080fd5b81518181111561571b5761571b614ef1565b615729848260051b01614f30565b818152848101925060069190911b83018401908782111561574957600080fd5b928401925b81841015614dfa57604084890312156157675760008081fd5b61576f614f07565b845161577a81614e05565b8152848601518682015283526040909301929184019161574e565b600080604083850312156157a857600080fd5b82516157b381614e05565b6020939093015192949293505050565b6000826157e057634e487b7160e01b600052601260045260246000fd5b500490565b60005b838110156158005781810151838201526020016157e8565b50506000910152565b6000825161581b8184602087016157e5565b9190910192915050565b60006080820160018060a01b038088168452602081881681860152604060808187015283885180865260a088019150838a01955060005b8181101561588357865180518716845285015185840152958401959183019160010161585c565b5050809550505050505082606083015295945050505050565b60208152600082518060208401526158bb8160408501602087016157e5565b601f01601f1916919091016040019291505056fe416464726573733a206c6f772d6c6576656c2064656c65676174652063616c6c206661696c6564a2646970667358221220c1193b6cf5c718aca9ef4d351d99169e3f704b45221518cd8beadb60711d294d64736f6c63430008110033",
  "linkReferences": {},
  "deployedLinkReferences": {}
}